{
  "_format": "hh-sol-artifact-1",
  "contractName": "IdentityManagement",
  "sourceName": "contracts/Token.sol",
  "abi": [
    {
      "anonymous": false,
      "inputs": [
        {
          "indexed": false,
          "internalType": "uint256",
          "name": "employeeId",
          "type": "uint256"
        },
        {
          "indexed": false,
          "internalType": "string",
          "name": "name",
          "type": "string"
        }
      ],
      "name": "AccessApproved",
      "type": "event"
    },
    {
      "anonymous": false,
      "inputs": [
        {
          "indexed": false,
          "internalType": "uint256",
          "name": "employeeId",
          "type": "uint256"
        }
      ],
      "name": "AccessDisapproved",
      "type": "event"
    },
    {
      "anonymous": false,
      "inputs": [
        {
          "indexed": false,
          "internalType": "uint256",
          "name": "employeeId",
          "type": "uint256"
        },
        {
          "indexed": false,
          "internalType": "string",
          "name": "name",
          "type": "string"
        },
        {
          "indexed": false,
          "internalType": "string",
          "name": "email",
          "type": "string"
        },
        {
          "indexed": false,
          "internalType": "string",
          "name": "accessLevel",
          "type": "string"
        },
        {
          "indexed": false,
          "internalType": "string",
          "name": "requestReason",
          "type": "string"
        }
      ],
      "name": "AccessRequested",
      "type": "event"
    },
    {
      "inputs": [
        {
          "internalType": "uint256",
          "name": "_employeeId",
          "type": "uint256"
        }
      ],
      "name": "approveStatus",
      "outputs": [],
      "stateMutability": "nonpayable",
      "type": "function"
    },
    {
      "inputs": [
        {
          "internalType": "uint256",
          "name": "_employeeId",
          "type": "uint256"
        }
      ],
      "name": "disapproveStatus",
      "outputs": [],
      "stateMutability": "nonpayable",
      "type": "function"
    },
    {
      "inputs": [],
      "name": "fetchAllIdentities",
      "outputs": [
        {
          "internalType": "uint256[]",
          "name": "",
          "type": "uint256[]"
        },
        {
          "internalType": "string[]",
          "name": "",
          "type": "string[]"
        },
        {
          "internalType": "string[]",
          "name": "",
          "type": "string[]"
        },
        {
          "internalType": "string[]",
          "name": "",
          "type": "string[]"
        },
        {
          "internalType": "string[]",
          "name": "",
          "type": "string[]"
        }
      ],
      "stateMutability": "view",
      "type": "function"
    },
    {
      "inputs": [
        {
          "internalType": "uint256",
          "name": "_employeeId",
          "type": "uint256"
        },
        {
          "internalType": "string",
          "name": "_password",
          "type": "string"
        }
      ],
      "name": "fetchCredentials",
      "outputs": [
        {
          "internalType": "string",
          "name": "",
          "type": "string"
        },
        {
          "internalType": "string",
          "name": "",
          "type": "string"
        }
      ],
      "stateMutability": "view",
      "type": "function"
    },
    {
      "inputs": [
        {
          "internalType": "string",
          "name": "_name",
          "type": "string"
        },
        {
          "internalType": "uint256",
          "name": "_employeeId",
          "type": "uint256"
        },
        {
          "internalType": "string",
          "name": "_email",
          "type": "string"
        },
        {
          "internalType": "string",
          "name": "_accessLevel",
          "type": "string"
        },
        {
          "internalType": "string",
          "name": "_requestReason",
          "type": "string"
        },
        {
          "internalType": "string",
          "name": "_username",
          "type": "string"
        },
        {
          "internalType": "string",
          "name": "_password",
          "type": "string"
        }
      ],
      "name": "requestAccess",
      "outputs": [],
      "stateMutability": "nonpayable",
      "type": "function"
    }
  ],
  "bytecode": "0x6080604052348015600f57600080fd5b50611fe08061001f6000396000f3fe608060405234801561001057600080fd5b50600436106100575760003560e01c806310e344f51461005c57806366e643a314610078578063a5a2e41c146100a9578063b54cb0bf146100cb578063ec3eeb80146100e7575b600080fd5b61007660048036038101906100719190611332565b610103565b005b610092600480360381019061008d919061147c565b6102d8565b6040516100a0929190611557565b60405180910390f35b6100b1610737565b6040516100c2959493929190611758565b60405180910390f35b6100e560048036038101906100e091906117ce565b610d97565b005b61010160048036038101906100fc91906117ce565b610ecf565b005b600080600088815260200190815260200160002060000180546101259061182a565b905014610167576040517f08c379a000000000000000000000000000000000000000000000000000000000815260040161015e906118a7565b60405180910390fd5b6040518061010001604052808881526020018781526020018681526020018581526020018481526020016000151581526020018381526020018381525060008088815260200190815260200160002060008201518160000190816101cb9190611a73565b506020820151816001015560408201518160020190816101eb9190611a73565b5060608201518160030190816102019190611a73565b5060808201518160040190816102179190611a73565b5060a08201518160050160006101000a81548160ff02191690831515021790555060c082015181600601908161024d9190611a73565b5060e08201518160070190816102639190611a73565b5090505060018690806001815401808255809150506001900390600052602060002001600090919091909150557f69e929b83261f92aaaac534ce6b7f4acdb61999946abfff9e5d610a7cea3193986888787876040516102c7959493929190611b54565b60405180910390a150505050505050565b60608060008085815260200190815260200160002060050160009054906101000a900460ff1661033d576040517f08c379a000000000000000000000000000000000000000000000000000000000815260040161033490611c0f565b60405180910390fd5b60008060008681526020019081526020016000206040518061010001604052908160008201805461036d9061182a565b80601f01602080910402602001604051908101604052809291908181526020018280546103999061182a565b80156103e65780601f106103bb576101008083540402835291602001916103e6565b820191906000526020600020905b8154815290600101906020018083116103c957829003601f168201915b50505050508152602001600182015481526020016002820180546104099061182a565b80601f01602080910402602001604051908101604052809291908181526020018280546104359061182a565b80156104825780601f1061045757610100808354040283529160200191610482565b820191906000526020600020905b81548152906001019060200180831161046557829003601f168201915b5050505050815260200160038201805461049b9061182a565b80601f01602080910402602001604051908101604052809291908181526020018280546104c79061182a565b80156105145780601f106104e957610100808354040283529160200191610514565b820191906000526020600020905b8154815290600101906020018083116104f757829003601f168201915b5050505050815260200160048201805461052d9061182a565b80601f01602080910402602001604051908101604052809291908181526020018280546105599061182a565b80156105a65780601f1061057b576101008083540402835291602001916105a6565b820191906000526020600020905b81548152906001019060200180831161058957829003601f168201915b505050505081526020016005820160009054906101000a900460ff161515151581526020016006820180546105da9061182a565b80601f01602080910402602001604051908101604052809291908181526020018280546106069061182a565b80156106535780601f1061062857610100808354040283529160200191610653565b820191906000526020600020905b81548152906001019060200180831161063657829003601f168201915b5050505050815260200160078201805461066c9061182a565b80601f01602080910402602001604051908101604052809291908181526020018280546106989061182a565b80156106e55780601f106106ba576101008083540402835291602001916106e5565b820191906000526020600020905b8154815290600101906020018083116106c857829003601f168201915b50505050508152505090508060c001516040518060400160405280601281526020017f50617373776f72642050726f746563746564000000000000000000000000000081525092509250509250929050565b60608060608060606000600180549050905060008167ffffffffffffffff811115610765576107646111d1565b5b6040519080825280602002602001820160405280156107935781602001602082028036833780820191505090505b50905060008267ffffffffffffffff8111156107b2576107b16111d1565b5b6040519080825280602002602001820160405280156107e557816020015b60608152602001906001900390816107d05790505b50905060008367ffffffffffffffff811115610804576108036111d1565b5b60405190808252806020026020018201604052801561083757816020015b60608152602001906001900390816108225790505b50905060008467ffffffffffffffff811115610856576108556111d1565b5b60405190808252806020026020018201604052801561088957816020015b60608152602001906001900390816108745790505b50905060008567ffffffffffffffff8111156108a8576108a76111d1565b5b6040519080825280602002602001820160405280156108db57816020015b60608152602001906001900390816108c65790505b50905060005b86811015610d7a576000600182815481106108ff576108fe611c2f565b5b9060005260206000200154905060008060008381526020019081526020016000206040518061010001604052908160008201805461093c9061182a565b80601f01602080910402602001604051908101604052809291908181526020018280546109689061182a565b80156109b55780601f1061098a576101008083540402835291602001916109b5565b820191906000526020600020905b81548152906001019060200180831161099857829003601f168201915b50505050508152602001600182015481526020016002820180546109d89061182a565b80601f0160208091040260200160405190810160405280929190818152602001828054610a049061182a565b8015610a515780601f10610a2657610100808354040283529160200191610a51565b820191906000526020600020905b815481529060010190602001808311610a3457829003601f168201915b50505050508152602001600382018054610a6a9061182a565b80601f0160208091040260200160405190810160405280929190818152602001828054610a969061182a565b8015610ae35780601f10610ab857610100808354040283529160200191610ae3565b820191906000526020600020905b815481529060010190602001808311610ac657829003601f168201915b50505050508152602001600482018054610afc9061182a565b80601f0160208091040260200160405190810160405280929190818152602001828054610b289061182a565b8015610b755780601f10610b4a57610100808354040283529160200191610b75565b820191906000526020600020905b815481529060010190602001808311610b5857829003601f168201915b505050505081526020016005820160009054906101000a900460ff16151515158152602001600682018054610ba99061182a565b80601f0160208091040260200160405190810160405280929190818152602001828054610bd59061182a565b8015610c225780601f10610bf757610100808354040283529160200191610c22565b820191906000526020600020905b815481529060010190602001808311610c0557829003601f168201915b50505050508152602001600782018054610c3b9061182a565b80601f0160208091040260200160405190810160405280929190818152602001828054610c679061182a565b8015610cb45780601f10610c8957610100808354040283529160200191610cb4565b820191906000526020600020905b815481529060010190602001808311610c9757829003601f168201915b505050505081525050905081888481518110610cd357610cd2611c2f565b5b6020026020010181815250508060000151878481518110610cf757610cf6611c2f565b5b60200260200101819052508060400151868481518110610d1a57610d19611c2f565b5b60200260200101819052508060600151858481518110610d3d57610d3c611c2f565b5b60200260200101819052508060800151848481518110610d6057610d5f611c2f565b5b6020026020010181905250505080806001019150506108e1565b5084848484849a509a509a509a509a505050505050509091929394565b60008060008381526020019081526020016000206000018054610db99061182a565b905003610dfb576040517f08c379a0000000000000000000000000000000000000000000000000000000008152600401610df290611caa565b60405180910390fd5b60008082815260200190815260200160002060008082016000610e1e9190611145565b6001820160009055600282016000610e369190611145565b600382016000610e469190611145565b600482016000610e569190611145565b6005820160006101000a81549060ff0219169055600682016000610e7a9190611145565b600782016000610e8a9190611145565b5050610e9581611082565b7f8580b21512be9de1da518afe1d0efd24530c505e5d2fe6c33234dbfa78f5fdab81604051610ec49190611cca565b60405180910390a150565b60008060008381526020019081526020016000206000018054610ef19061182a565b905003610f33576040517f08c379a0000000000000000000000000000000000000000000000000000000008152600401610f2a90611caa565b60405180910390fd5b60008082815260200190815260200160002060050160009054906101000a900460ff1615610f96576040517f08c379a0000000000000000000000000000000000000000000000000000000008152600401610f8d90611d31565b60405180910390fd5b600160008083815260200190815260200160002060050160006101000a81548160ff0219169083151502179055506000808281526020019081526020016000206002016000808381526020019081526020016000206006019081610ffa9190611d7c565b5060008082815260200190815260200160002060000160008083815260200190815260200160002060070190816110319190611d7c565b507f88735b10278191d51558223b438620119a891dba70083bb300af12dcb477010a81600080848152602001908152602001600020600001604051611077929190611ee8565b60405180910390a150565b60005b6001805490508110156111415781600182815481106110a7576110a6611c2f565b5b9060005260206000200154036111345760018080805490506110c99190611f47565b815481106110da576110d9611c2f565b5b9060005260206000200154600182815481106110f9576110f8611c2f565b5b9060005260206000200181905550600180548061111957611118611f7b565b5b60019003818190600052602060002001600090559055611141565b8080600101915050611085565b5050565b5080546111519061182a565b6000825580601f106111635750611182565b601f0160209004906000526020600020908101906111819190611185565b5b50565b5b8082111561119e576000816000905550600101611186565b5090565b6000604051905090565b600080fd5b600080fd5b600080fd5b600080fd5b6000601f19601f8301169050919050565b7f4e487b7100000000000000000000000000000000000000000000000000000000600052604160045260246000fd5b611209826111c0565b810181811067ffffffffffffffff82111715611228576112276111d1565b5b80604052505050565b600061123b6111a2565b90506112478282611200565b919050565b600067ffffffffffffffff821115611267576112666111d1565b5b611270826111c0565b9050602081019050919050565b82818337600083830152505050565b600061129f61129a8461124c565b611231565b9050828152602081018484840111156112bb576112ba6111bb565b5b6112c684828561127d565b509392505050565b600082601f8301126112e3576112e26111b6565b5b81356112f384826020860161128c565b91505092915050565b6000819050919050565b61130f816112fc565b811461131a57600080fd5b50565b60008135905061132c81611306565b92915050565b600080600080600080600060e0888a031215611351576113506111ac565b5b600088013567ffffffffffffffff81111561136f5761136e6111b1565b5b61137b8a828b016112ce565b975050602061138c8a828b0161131d565b965050604088013567ffffffffffffffff8111156113ad576113ac6111b1565b5b6113b98a828b016112ce565b955050606088013567ffffffffffffffff8111156113da576113d96111b1565b5b6113e68a828b016112ce565b945050608088013567ffffffffffffffff811115611407576114066111b1565b5b6114138a828b016112ce565b93505060a088013567ffffffffffffffff811115611434576114336111b1565b5b6114408a828b016112ce565b92505060c088013567ffffffffffffffff811115611461576114606111b1565b5b61146d8a828b016112ce565b91505092959891949750929550565b60008060408385031215611493576114926111ac565b5b60006114a18582860161131d565b925050602083013567ffffffffffffffff8111156114c2576114c16111b1565b5b6114ce858286016112ce565b9150509250929050565b600081519050919050565b600082825260208201905092915050565b60005b838110156115125780820151818401526020810190506114f7565b60008484015250505050565b6000611529826114d8565b61153381856114e3565b93506115438185602086016114f4565b61154c816111c0565b840191505092915050565b60006040820190508181036000830152611571818561151e565b90508181036020830152611585818461151e565b90509392505050565b600081519050919050565b600082825260208201905092915050565b6000819050602082019050919050565b6115c3816112fc565b82525050565b60006115d583836115ba565b60208301905092915050565b6000602082019050919050565b60006115f98261158e565b6116038185611599565b935061160e836115aa565b8060005b8381101561163f57815161162688826115c9565b9750611631836115e1565b925050600181019050611612565b5085935050505092915050565b600081519050919050565b600082825260208201905092915050565b6000819050602082019050919050565b600082825260208201905092915050565b6000611694826114d8565b61169e8185611678565b93506116ae8185602086016114f4565b6116b7816111c0565b840191505092915050565b60006116ce8383611689565b905092915050565b6000602082019050919050565b60006116ee8261164c565b6116f88185611657565b93508360208202850161170a85611668565b8060005b85811015611746578484038952815161172785826116c2565b9450611732836116d6565b925060208a0199505060018101905061170e565b50829750879550505050505092915050565b600060a082019050818103600083015261177281886115ee565b9050818103602083015261178681876116e3565b9050818103604083015261179a81866116e3565b905081810360608301526117ae81856116e3565b905081810360808301526117c281846116e3565b90509695505050505050565b6000602082840312156117e4576117e36111ac565b5b60006117f28482850161131d565b91505092915050565b7f4e487b7100000000000000000000000000000000000000000000000000000000600052602260045260246000fd5b6000600282049050600182168061184257607f821691505b602082108103611855576118546117fb565b5b50919050565b7f5265717565737420616c72656164792065786973747300000000000000000000600082015250565b60006118916016836114e3565b915061189c8261185b565b602082019050919050565b600060208201905081810360008301526118c081611884565b9050919050565b60008190508160005260206000209050919050565b60006020601f8301049050919050565b600082821b905092915050565b6000600883026119297fffffffffffffffffffffffffffffffffffffffffffffffffffffffffffffffff826118ec565b61193386836118ec565b95508019841693508086168417925050509392505050565b6000819050919050565b600061197061196b611966846112fc565b61194b565b6112fc565b9050919050565b6000819050919050565b61198a83611955565b61199e61199682611977565b8484546118f9565b825550505050565b600090565b6119b36119a6565b6119be818484611981565b505050565b5b818110156119e2576119d76000826119ab565b6001810190506119c4565b5050565b601f821115611a27576119f8816118c7565b611a01846118dc565b81016020851015611a10578190505b611a24611a1c856118dc565b8301826119c3565b50505b505050565b600082821c905092915050565b6000611a4a60001984600802611a2c565b1980831691505092915050565b6000611a638383611a39565b9150826002028217905092915050565b611a7c826114d8565b67ffffffffffffffff811115611a9557611a946111d1565b5b611a9f825461182a565b611aaa8282856119e6565b600060209050601f831160018114611add5760008415611acb578287015190505b611ad58582611a57565b865550611b3d565b601f198416611aeb866118c7565b60005b82811015611b1357848901518255600182019150602085019450602081019050611aee565b86831015611b305784890151611b2c601f891682611a39565b8355505b6001600288020188555050505b505050505050565b611b4e816112fc565b82525050565b600060a082019050611b696000830188611b45565b8181036020830152611b7b818761151e565b90508181036040830152611b8f818661151e565b90508181036060830152611ba3818561151e565b90508181036080830152611bb7818461151e565b90509695505050505050565b7f416363657373206e6f7420617070726f76656400000000000000000000000000600082015250565b6000611bf96013836114e3565b9150611c0482611bc3565b602082019050919050565b60006020820190508181036000830152611c2881611bec565b9050919050565b7f4e487b7100000000000000000000000000000000000000000000000000000000600052603260045260246000fd5b7f5265717565737420646f6573206e6f7420657869737400000000000000000000600082015250565b6000611c946016836114e3565b9150611c9f82611c5e565b602082019050919050565b60006020820190508181036000830152611cc381611c87565b9050919050565b6000602082019050611cdf6000830184611b45565b92915050565b7f416c726561647920617070726f76656400000000000000000000000000000000600082015250565b6000611d1b6010836114e3565b9150611d2682611ce5565b602082019050919050565b60006020820190508181036000830152611d4a81611d0e565b9050919050565b600081549050611d608161182a565b9050919050565b60008190508160005260206000209050919050565b818103611d8a575050611e62565b611d9382611d51565b67ffffffffffffffff811115611dac57611dab6111d1565b5b611db6825461182a565b611dc18282856119e6565b6000601f831160018114611df05760008415611dde578287015490505b611de88582611a57565b865550611e5b565b601f198416611dfe87611d67565b9650611e09866118c7565b60005b82811015611e3157848901548255600182019150600185019450602081019050611e0c565b86831015611e4e5784890154611e4a601f891682611a39565b8355505b6001600288020188555050505b5050505050505b565b60008154611e718161182a565b611e7b81866114e3565b94506001821660008114611e965760018114611eac57611edf565b60ff198316865281151560200286019350611edf565b611eb5856118c7565b60005b83811015611ed757815481890152600182019150602081019050611eb8565b808801955050505b50505092915050565b6000604082019050611efd6000830185611b45565b8181036020830152611f0f8184611e64565b90509392505050565b7f4e487b7100000000000000000000000000000000000000000000000000000000600052601160045260246000fd5b6000611f52826112fc565b9150611f5d836112fc565b9250828203905081811115611f7557611f74611f18565b5b92915050565b7f4e487b7100000000000000000000000000000000000000000000000000000000600052603160045260246000fdfea264697066735822122014fd2685e1f38fea9f16bee4d944224f869409c3a7cbc739fca80753971271ec64736f6c634300081b0033",
  "linkReferences": {},
  "deployedLinkReferences": {}
}